:100000000C94DE000C94FB000C94FB000C94FB00A1
:100010000C94FB000C94FB000C94FB000C94FB0074
:100020000C94FB000C94FB000C94AC060C94FB00AD
:100030000C94FB000C94FB000C94FB000C94FB0054
:100040000C94FB000C94FB000C94FB000C94FB0044
:100050000C94FB00090122013B0154016C016C016D
:100060006C016C016C016C016C016C016C016C0128
:100070006C016C016C016C016C016C016C016C0118
:100080006C016C016C016C016C016C016C016C0108
:100090006C016C01090122013B01540179019201BB
:1000A000AB01C401DC01DC01DC01DC01DC01DC01B1
:1000B000DC01DC01DC01DC01DC01DC01DC01DC0158
:1000C000DC01DC01DC01DC01DC01DC01DC01DC0148
:1000D000DC01DC01DC01DC01DC01DC0179019201E5
:1000E000AB01C401E901FD01110225023902390207
:1000F0003902390239023902390239023902390228
:100100003902390239023902390239023902390217
:100110003902390239023902390239023902390207
:1001200039023902E901FD0111022502470260028C
:1001300079029202AA02AA02AA02AA02AA02AA02A8
:10014000AA02AA02AA02AA02AA02AA02AA02AA024F
:10015000AA02AA02AA02AA02AA02AA02AA02AA023F
:10016000AA02AA02AA02AA02AA02AA0247026002DC
:1001700079029202B802BF02C602CD02D302D302B4
:10018000D302D302D302D302D302D302D302D302C7
:10019000D302D302D302D302D302D302D302D302B7
:1001A000D302D302D302D302D302D302D302D302A7
:1001B000D302D302B802BF02C602CD0211241FBE71
:1001C000CFE5D8E0DEBFCDBF11E0A0E6B0E0EEE0C5
:1001D000FEE002C005900D92A830B107D9F721E0EA
:1001E000A8E0B1E001C01D92AC30B207E1F70E9477
:1001F00059040C9405070C94000090E0FC01E154B4
:10020000F109E432F10508F067C0E65DFF4F0C9498
:10021000D906413059F42AB381E090E002C0880F3A
:10022000991F6A95E2F7822B8ABB08952AB381E071
:1002300090E002C0880F991F6A95E2F780958223AB
:100240008ABB0895413059F427B381E090E002C0A1
:10025000880F991F6A95E2F7822B87BB089527B311
:1002600081E090E002C0880F991F6A95E2F78095BF
:10027000822387BB0895413059F424B381E090E094
:1002800002C0880F991F6A95E2F7822B84BB0895FC
:1002900024B381E090E002C0880F991F6A95E2F7CD
:1002A0008095822384BB0895413059F421B381E0C5
:1002B00090E002C0880F991F6A95E2F7822B81BBFC
:1002C000089521B381E090E002C0880F991F6A95DC
:1002D000E2F78095822381BB089590E0FC01E15410
:1002E000F109E432F10508F067C0E25BFF4F0C94BE
:1002F000D906413059F42BB381E090E002C0880F59
:10030000991F6A95E2F7822B8BBB08952BB381E08E
:1003100090E002C0880F991F6A95E2F780958223CA
:100320008BBB0895413059F428B381E090E002C0BE
:10033000880F991F6A95E2F7822B88BB089528B32E
:1003400081E090E002C0880F991F6A95E2F78095DE
:10035000822388BB0895413059F425B381E090E0B1
:1003600002C0880F991F6A95E2F7822B85BB08951A
:1003700025B381E090E002C0880F991F6A95E2F7EB
:100380008095822385BB0895413059F422B381E0E2
:1003900090E002C0880F991F6A95E2F7822B82BB1A
:1003A000089522B381E090E002C0880F991F6A95FA
:1003B000E2F78095822382BB089590E0FC01E1542E
:1003C000F109E432F10508F054C0EE58FF4F0C94E7
:1003D000D90649B381E090E09C01062E02C0220FAD
:1003E000331F0A94E2F7842F90E08223932302C004
:1003F000959587956A95E2F7089546B381E090E078
:100400009C01062E02C0220F331F0A94E2F7842FAC
:1004100090E08223932302C0959587956A95E2F731
:10042000089543B381E090E09C01062E02C0220FA4
:10043000331F0A94E2F7842F90E08223932302C0B3
:10044000959587956A95E2F7089540B381E090E02D
:100450009C01062E02C0220F331F0A94E2F7842F5C
:1004600090E08223932302C0959587956A95E2F7E1
:10047000089580E0089590E0FC01E154F109E43230
:10048000F10508F067C0EA56FF4F0C94D9064130D9
:1004900059F42BB381E090E002C0880F991F6A9550
:1004A000E2F7822B8BBB08952BB381E090E002C072
:1004B000880F991F6A95E2F7809582238BBB089578
:1004C000413059F428B381E090E002C0880F991FB1
:1004D0006A95E2F7822B88BB089528B381E090E00B
:1004E00002C0880F991F6A95E2F78095822388BB26
:1004F0000895413059F425B381E090E002C0880F9F
:10050000991F6A95E2F7822B85BB089525B381E098
:1005100090E002C0880F991F6A95E2F780958223C8
:1005200085BB0895413059F422B381E090E002C0C8
:10053000880F991F6A95E2F7822B82BB089522B338
:1005400081E090E002C0880F991F6A95E2F78095DC
:10055000822382BB08956295607F90E0FC01E154A4
:10056000F109E432F105F8F4E654FF4F0C94D90692
:100570008BB38F708BBB8BB3682B6BBB089588B329
:100580008F7088BB88B3682B68BB089585B38F7064
:1005900085BB85B3682B65BB089582B38F7082BB22
:1005A00082B3682B62BB089541E060E083E40E945F
:1005B000FD0041E061E083E40E94FD0041E062E073
:1005C00083E40E94FD0041E063E083E40E94FD00BB
:1005D00040E064E083E40E94FD0040E065E083E4E5
:1005E0000E94FD0040E066E083E40E94FD0040E0E0
:1005F00067E083E40E94FD0041E064E083E40E9440
:100600003B0241E065E083E40E943B0241E066E09A
:1006100083E40E943B0241E067E083E40E943B02E6
:100620000895EF92FF920F931F93CF93DF93CDB76F
:10063000DEB760970FB6F894DEBF0FBECDBF80E186
:10064000E0E6F0E0DE01119601900D928A95E1F767
:10065000F12CEE24EA9439C041E060E083E40E948A
:100660006D0141E061E083E40E946D0141E062E0E0
:1006700083E40E946D0141E063E083E40E946D0128
:1006800040E06F2D83E40E946D0110E019C064E02A
:10069000610F83E40E94DD01082F811110C0EF2D4E
:1006A000F0E0EE0FFF1FEE0FFF1F81E090E08C0FD8
:1006B0009D1FE80FF91FE10FF11DE08003C01F5FD0
:1006C000143028F3002321F0F39493E09F1520F6D3
:1006D0008E2D60960FB6F894DEBF0FBECDBFDF91B2
:1006E000CF911F910F91FF90EF90089541E062E04C
:1006F00082E40E946D018FE99FE00197F1F700C04D
:10070000000040E062E082E40E946D018FE99FE01A
:100710000197F1F700C000000895CF93C82F40E083
:1007200060E082E40E946D016C2F62956F7081E43D
:100730000E94AB020E9476036C2F81E40E94AB0200
:100740000E9476038FEC97E00197F1F700C000005C
:10075000CF9108952FEF81EE94E02150804090409A
:10076000E1F700C0000041E064E081E40E94FD0088
:1007700041E065E081E40E94FD0041E066E081E443
:100780000E94FD0041E067E081E40E94FD0041E03D
:1007900062E082E40E94FD0041E061E082E40E94A8
:1007A000FD0041E060E082E40E94FD0040E061E085
:1007B00082E40E946D0182E00E948D038FE19EE43D
:1007C0000197F1F700C0000088E20E948D038FECD2
:1007D00097E00197F1F700C0000081E00E948D03CF
:1007E0008FE19EE40197F1F700C000008CE00E94C9
:1007F0008D038FEC97E00197F1F700C0000086E0D1
:100800000E948D038FEC97E00197F1F700C0000084
:100810000895CF93C82F41E060E082E40E946D010B
:100820006C2F62956F7081E40E94AB020E94760388
:100830006C2F81E40E94AB020E947603CF91089551
:10084000CF93DF93EC0103C00E94090421968881B5
:100850008111FACFDF91CF91089581E00E948D033D
:100860008FE19EE40197F1F700C0000008959FEF2B
:10087000980F923070F4613170F4662371F081301A
:1008800019F48FE7860F0CC0823049F48FEB860F86
:1008900007C080E805C080E803C080E801C080E0B0
:1008A0000E948D038FEC97E00197F1F700C00000E4
:1008B0000895EF92FF921F93CF93DF93CDB7DEB7EA
:1008C0002C970FB6F894DEBF0FBECDBF0E94AA03CF
:1008D0000E94D4020E94C3061092090110920801DE
:1008E00010920B0110920A010E942D0480E790E003
:1008F0000E942004E12CF12C0E941103182F8D334B
:10090000A1F0803391F0813381F0823371F0833331
:1009100061F0843351F0853341F0863331F0873311
:1009200021F0883311F0893339F51D33C9F1E11411
:10093000F10461F463E081E00E94370489E790E00C
:100940000E94200463E081E00E943704812F0E940E
:100950000904E1E0F0E0EC0FFD1FEE0DFF1D108338
:100960002FEFE21AF20A8FE79AE126E081509040D9
:100970002040E1F700C0000080910A0190910B0136
:10098000883E934034F081E090E090930901809399
:1009900008018091080190910901892B09F4ACCFDD
:1009A0008FEF91EE24E0815090402040E1F700C0AD
:1009B0000000E1E0F0E0EC0FFD1FEE0DFF1D1082E6
:1009C000CE0101960E94DF061F3F79F40E942D049C
:1009D0008CE790E00E94200464E082E00E943704EB
:1009E00089E890E00E942004A9C1059799F50E942A
:1009F0002D0484E990E00E94200464E082E00E94DB
:100A0000370481EA90E00E9420048FEF99E628E104
:100A1000815090402040E1F700C000000E942D046A
:100A20008CEA90E00E9420048FEF99E628E1815043
:100A300090402040E1F700C000000E942D048AEBA6
:100A400090E00E94200410920B0110920A01E12C08
:100A5000F12C0FC00E942D0485EC90E00E94200430
:100A600064E082E00E94370489E890E00E9420045C
:100A700065C10E941103182F8D33A1F0803391F0CE
:100A8000813381F0823371F0833361F0843351F02C
:100A9000853341F0863331F0873321F0883311F00C
:100AA000893339F51D33C9F1E114F10461F464E0CF
:100AB00081E00E94370489E790E00E94200464E00E
:100AC00081E00E943704812F0E940904E5E0F0E0F4
:100AD000EC0FFD1FEE0DFF1D10838FEFE81AF80AD3
:100AE0009FE72AE186E0915020408040E1F700C076
:100AF000000080910A0190910B01883E934034F0F0
:100B000081E090E0909309018093080180910801B1
:100B100090910901892B09F4ACCF8FEF91EE24E07D
:100B2000815090402040E1F700C00000E5E0F0E097
:100B3000EC0FFD1FEE0DFF1D1082CE0105960E94E9
:100B4000DF061F3F79F40E942D048CE790E00E949D
:100B5000200464E082E00E94370481EA90E00E9471
:100B60002004ECC0809799F50E942D0484E990E060
:100B70000E94200464E082E00E94370485ED90E04A
:100B80000E9420048FEF99E628E181509040204098
:100B9000E1F700C000000E942D048CEA90E00E9462
:100BA00020048FEF99E628E1815090402040E1F742
:100BB00000C000000E942D0480EE90E00E942004FE
:100BC00010920B0110920A01E12CF12C0FC00E942F
:100BD0002D0485EC90E00E94200464E082E00E94F5
:100BE000370481EA90E00E942004A8C00E9411030B
:100BF000182F8D33A1F0803391F0813381F082334F
:100C000071F0833361F0843351F0853341F08633E2
:100C100031F0873321F0883311F0893339F51D33F2
:100C2000C9F1E114F10461F465E081E00E94370448
:100C300089E790E00E94200465E081E00E9437048B
:100C4000812F0E940904E9E0F0E0EC0FFD1FEE0D9A
:100C5000FF1D10838FEFE81AF80A9FE72AE186E06C
:100C6000915020408040E1F700C0000080910A01CF
:100C700090910B01883E934034F081E090E0909396
:100C80000901809308018091080190910901892B45
:100C900009F4ACCF8FEF91EE24E0815090402040DA
:100CA000E1F700C00000E9E0F0E0EC0FFD1FEE0D01
:100CB000FF1D1082CE0109960E94DF061F3F79F4C6
:100CC0000E942D048CE790E00E94200464E082E002
:100CD0000E94370485ED90E00E9420042FC08C3ADA
:100CE0009105F1F40E942D0484E990E00E94200413
:100CF00064E082E00E9437048CEE90E00E942004C1
:100D00008FEF99E628E1815090402040E1F700C044
:100D100000000E942D0488EF90E00E9420040EC085
:100D20000E942D0485EC90E00E94200464E082E0A3
:100D30000E94370485ED90E00E94200480E090E05E
:100D40002C960FB6F894DEBF0FBECDBFDF91CF91CA
:100D50001F91FF90EF9008951F920F920FB60F9280
:100D600011248F939F9380910A0190910B0101961A
:100D700090930B0180930A019F918F910F900FBE6A
:100D80000F901F90189583B78F7B83BF83B78860C0
:100D900083BF80E58CBF83B7816083BF83B78D7FBE
:100DA00083BF83B7846083BF789489B7826089BF2B
:100DB0000895EE0FFF1F0590F491E02D0994FC01BA
:100DC00088279927E89421912032E9F3293010F0FF
:100DD0002E30C8F32B3241F02D3239F4689404C020
:100DE0000E94FD06820F911D219120532A30C0F3ED
:100DF0001EF4909581959F4F08957AE0979F902DCE
:0E0E0000879F802D910D11240895F894FFCF47
:100E0E003738392F3435362A3132332D41303D2B98
:100E1E00382B3F3F203D313300202000202020542E
:100E2E00696D65206F7665720053636F72653A3037
:100E3E002F31300020202057656C6C20446F6E657A
:100E4E000053636F72653A322F3130002020204EEE
:100E5E00657874204C6576656C0036382B3F3F20E4
:100E6E003D3130300020202057726F6E6720416E6A
:100E7E00737765720053636F72653A362F313000A7
:100E8E003135302B3F3F203D3332320053636F728A
:100E9E00653A31302F31300020436F6E67726174C6
:080EAE00756C6174696F6E0040
:00000001FF
